:1000000002308A009B2A0000FF00030E8301A1003A
:100010000A08A0008A010408A2007708A300780853
:10002000A4007908A5007A08A60003170D08031399
:10003000A70003170F080313A80003170C080313E6
:10004000A90003170E080313AA00831383128B1D44
:100050002B280B1852288C308400001C31280C18D7
:100060005528220884002308F7002408F8002508F2
:10007000F9002608FA00270803178D000313280843
:1000800003178F000313290803178C0003132A0892
:1000900003178E00031320088A00210E8300FF0E31
:1000A0007F0E09008A110A127C288A110A12582828
:1000B000E70AF10A8316E40AEE0A8312B60AB80ABE
:1000C000BA0ABC0ADB015B08033C031C73284F30EF
:1000D0005B0784008313800A60305B07840083130E
:1000E000800ADB0A63288E013C308F00B0308E001E
:1000F0000C108A110A12312883160614831206186E
:100100009A28831608118312081583160614831281
:10011000061C8528E7010130E400A0306507840053
:10012000831301308000E50A6508223C031D9A28EC
:100130000130E6008316861483128618B7288316CA
:10014000081183120815831686148312861CA328AF
:10015000E7010130E400A0306507840083138001CB
:10016000E50A6508223C031DB7280130E600831626
:10017000061583120619D52883168811831288154F
:10018000831606158312061DC028F1010130EE000A
:10019000C2306F078400831301308000EF0A6F08BC
:1001A000223C031DD5280130F000831686158312EA
:1001B0008619F228831688118312881583168615EE
:1001C0008312861DDE28F1010130EE00C2306F0778
:1001D000840083138001EF0A6F08223C031DF2287C
:1001E0000130F000831606168312061A12298316B0
:1001F000081083120814831606168312061EFB28A5
:100200008316E4010130FC0010307D078400831761
:1002100001308000FD0A7D08223C031D11290130B8
:10022000FE008312831686168312861A31298316DE
:10023000081083120814831686168312861E1B2943
:100240008316E4010130FC0010307D078400831721
:100250008001FD0A7D08223C031D30290130FE008B
:100260008312831606178312061B512983168810E2
:1002700083128814831606178312061F3A298316E1
:10028000EE010130EB0036306C078400831701303B
:100290008000EC0A6C08223C031D50290130ED005F
:1002A0008312831686178312861B70298316881083
:1002B00083128814831686178312861F5A29831681
:1002C000EE010130EB0036306C07840083178001AB
:1002D000EC0A6C08223C031D6F290130ED008312EB
:1002E0000B108A110A123128CD2AD820AD24442CB3
:1002F000BA12301C4C2C0D00CD2A58212D2749282C
:10030000BA12F512F512F512F506803ACD2A5821E7
:10031000AD24442CBA12301C4C2C0D00CD2AD82010
:100320002D274928BA12F512F512F512F50600012B
:10033000CD2AD821AD24442CBA12301C4C2C0D00EF
:10034000CD2AD8212D274928BA12F512F512F51217
:10035000F5060001CD2A5822AD24442CBA12301CD7
:100360004C2C0D00CD2A58222D274928BA12F512FF
:10037000F512F512F506000078080319C42977086C
:100380008000840AF80BBF2908000B080317D90066
:1003900003138B13831603178C170C140000000033
:1003A0008312D91FD62903138B1703170318FE29AD
:1003B0000C087F39D9000D08DA000F08DB00590856
:1003C00003130C1EE129990003175A088D005B08DE
:1003D0008F0003130B080317DC0003138B13831622
:1003E00003178C170C14000000008312DC1FFB297C
:1003F00003138B170317D80BFE29192A0C0D0E0DAA
:100400007F39D9000D08DA000F08DB005908031303
:100410000C1E082A990003175A088D005B088F00EC
:100420008D0A03198F0A0310D80B172A192A0313F0
:10043000C529031308000317D91B312A0F30F70011
:10044000580EF7050A3077020318292A3030F707CB
:100450002B2A5908F707770803130C1E2D2A990039
:1004600003170F30D8050A3058020318392A3030E4
:100470003B2AD9135908D807580803130C1E3E2AE3
:100480009900080003175B08F8015A0203184B2A69
:100490005A08F700572AF7010830DC00DA0DF70D8B
:1004A0005B0877020318F700F80DDC0B4E2A0313E4
:1004B0000800780803175808DA006430DB000313DB
:1004C000422277080317D80078083030031D6F2ABE
:1004D000D91C792AD919792A591A2030722AD911A6
:1004E00059125914F807780803130C1E752A99003D
:1004F00003175808DA000A30DB000313422277089A
:100500000317D80078083030031D8C2AD919932A94
:10051000591C932A591A2030F807780803130C1E27
:100520008F2A990003173030D807580803130C1E80
:10053000972A9900080003081F398300B1010A3087
:1005400083169900A6309800903083129800E50138
:10055000E601EF01F001FD01FE018316EC01ED0162
:10056000FF30EF000317850186018801890183139D
:1005700083120313AB01AC0183161F109F100030D0
:1005800003178500890086008800831203131F105B
:100590003530900083168F010C1483128E013C308D
:1005A0008F00B0308E008316011383128B15FF303D
:1005B0008316960483128B158316161483128B15DB
:1005C0008316961483128B158316161583128B15BA
:1005D0008316961583128B158316161683128B15A8
:1005E0008316961683128B158316161783128B1596
:1005F000831696178312B40AE601EB01EA01E901BA
:10060000E801BD01BE01B301B2013208E500E4001A
:100610000230E700B301B201B308031D1E2B3208FC
:10062000213C031C1E2BA030320784008313331897
:1006300083178001B20A0319B30A0C2BF001F501EC
:10064000F401F301F201EC01ED01B301B201320852
:10065000EF00EE000230F100B301B201B308031D58
:10066000402B3208213C031C402BC230320784004F
:100670008313331883178001B20A0319B30A2E2B90
:10068000FE018316E801E701E601E501F601FB0141
:100690008312B301B2013208FD00FC000230831660
:1006A000E4008312B301B201B308031D642B3208C6
:1006B000213C031C642B1030320784008317800117
:1006C000B20A0319B30A542B8316ED0183120317E0
:1006D000B501B401B301B20183160313E901EA01C4
:1006E0008312B301B20132088316EC00EB00023032
:1006F000EE008312B301B201B308031D8C2B320844
:10070000213C031C8C2B3630320784008317800178
:10071000B20A0319B30A7C2BC0308B04BB013B081F
:10072000B900B700B5003F3084008313F7010430EF
:10073000F800BC21433084008313F7010430F80033
:10074000BC21473084008313F7010430F800BC213A
:100750004B3084008313F7010430F800BC214F3084
:1007600084008313F7010430F800BC215330840067
:100770008313F7010430F800BC21DA015A08D900CC
:10078000D800D7005C3084008313F7010430F800F0
:10079000BC21603084008313F7010430F800BC21D1
:1007A00083166F106F088700831207108316EF10EF
:1007B0006F0887008312871083166F116F088700F8
:1007C000831207118316EF126F08870083128712B6
:1007D000B5080319F42B3608183C0318F42BB5019F
:1007E0008316081183120811B7080319002C380862
:1007F000183C0318002CB701831688118312881146
:10080000B90803190C2C3A08183C03180C2CB90130
:100810008316081083120810BB080319182C3C0813
:10082000183C0318182CBB018316881083128810FB
:100830008A1500288A11B301B201B308031D7D2C6B
:100840003208033C031C7D2C5C3032078400831388
:100850003318831780080319792C6030320784001D
:100860008313331883170008053C0318792C5C3078
:100870003207840083133318831780013208F7008E
:100880003308FA007A08031D482CF70803195E2C78
:100890007A08031D4F2C013077020319652C7A0862
:1008A000031D562C0230770203196C2C7A08031DA5
:1008B0005D2C033077020319732C792C83166F108B
:1008C0006F08870083120710792C8316EF106F08CA
:1008D000870083128710792C83166F116F088700A9
:1008E00083120711792C8316EF126F088700831289
:1008F0008712B20A0319B30A1D2CB301B201B3085F
:10090000031D0E2D3208033C031C0E2D53303207FD
:100910008400831333188317800803190A2D4F307E
:10092000320784008313331883170008323C0318FE
:100930000A2D5C303207840083133318831701308B
:1009400080006030320784008313331883178001DE
:100950005330320784008313331883178001320821
:10096000F7003308FA007A08031DB92CF7080319B9
:10097000CF2C7A08031DC02C013077020319DE2C1E
:100980007A08031DC72C023077020319ED2C7A0870
:10099000031DCE2C033077020319FC2C0A2D3F30A7
:1009A00084008313F7010430F800BC21D7018316BB
:1009B0006F106F088700831207140A2D43308400DC
:1009C0008313F7010430F800BC21D8018316EF101F
:1009D0006F088700831287140A2D47308400831321
:1009E000F7010430F800BC21D90183166F116F089C
:1009F0008700831207150A2D4B3084008313F701FB
:100A00000430F800BC21DA018316EF126F0887006A
:100A100083128716B20A0319B30A7F2C6400E82BED
:020A2000630071
:10100000640B7B296708013C03187B290B138B13A6
:101010008B1B0728E601EB01EA01E901E8016508FD
:101020001A3C031917286508223C031D9128B301B7
:101030000130B20001306502B308031D4E283202B0
:1010400003184E280310680D0317D9000313690D08
:101050000317DA0003136A0D0317DB0003136B0D8C
:101060000317DC00A0300313320784008313331806
:1010700083170008031759040313E80003175A08DD
:101080000313E90003175B080313EA0003175C0866
:101090000313EB00B20A0319B30A1A2874300317BA
:1010A0008D0001308F0003100930D8008A1103131E
:1010B000C5218A156B080317D8003730D9008A116B
:1010C00003131B228A156A080317D8003730D9008A
:1010D0008A1103131B228A1569080317D8003730B9
:1010E000D9008A1103131B228A1568080317D80038
:1010F0003730D9008A1103131B228A150D300C1EBC
:101100007F2899000130B500B6013F308400831379
:10111000F7010430F8008A11BC218A15D701D301E8
:1011200065296508083C031999286508043C031DD6
:101130005C29B50183160811831208116508043C67
:10114000031DD828B301B201B308031DD7286508D1
:1011500032020318D7280310680D0317D9000313B0
:10116000690D0317DA0003136A0D0317DB0003137D
:101170006B0D0317DC00A0300313320784008313C8
:10118000331883170008031759040313E8000317E3
:101190005A080313E90003175B080313EA00031757
:1011A0005C080313EB00B20A0319B30AA4280E2942
:1011B000B3010430B200B308031D0E2965083202E2
:1011C00003180E290310680D0317D9000313690DC6
:1011D0000317DA0003136A0D0317DB0003136B0D0B
:1011E0000317DC00A0300313320784008313331885
:1011F00083170008031759040313E80003175A085C
:101200000313E90003175B080313EA0003175C08E4
:101210000313EB00B20A0319B30ADB283F30570768
:1012200084008313680880000130D300CF01D70AFF
:101230005708043C031D5B297C3003178D000130E7
:101240008F0003100930D8008A110313C5218A15B5
:101250003F080317D8001B30D9008A110313592205
:101260008A1540080317D8001B30D9008A110313D0
:1012700059228A1541080317D8001B30D9008A115A
:10128000031359228A1542080317D8001B30D900CE
:101290008A11031359228A150D300C1E4D2999000D
:1012A0003F3084008313F7010430F8008A11BC2119
:1012B0008A15D701D30165290B138B138B1B5D296D
:1012C000B5018316081183120811EB01EA01E90147
:1012D000E801BD01BE01B301B2013208E500E4003E
:1012E000A03084008313F7012230F8008A11BC215A
:1012F0008A15C0308B046E0BDB2A7108013C031881
:10130000DB2A0B138B138B1B8229F001F501F401EF
:10131000F301F2016F081A3C031992296F08223C6D
:10132000031DFF29B3010130B20001306F02B30881
:10133000031DBD2932020318BD290310720D0317C6
:10134000D900730DDA00740DDB00750DDC00C230BE
:10135000031332078400831333188317000803171D
:101360005904F2005A08F3005B08F4005C08F50029
:101370000313B20A0319B30A9529863003178D00A7
:1013800001308F0003100930D8008A110313C521E2
:101390008A1575080317D8003730D9008A1103134E
:1013A0001B228A1574080317D8003730D9008A1118
:1013B00003131B228A1573080317D8003730D9008E
:1013C0008A1103131B228A1572080317D8003730BD
:1013D000D9008A1103131B228A150D300C1EEE2929
:1013E00099000130B700B801433084008313F7013E
:1013F0000430F8008A11BC218A15D801C52A6F086B
:10140000083C0319072A6F08043C031DB22AB701E0
:1014100083168811831288116F08083C031D3B2A2C
:10142000B3010430B200B308031D3A2A6F08320238
:1014300003183A2A0310720D0317D900730DDA004E
:10144000740DDB00750DDC00C2300313320784001D
:10145000831333188317000803175904F2005A083E
:10146000F3005B08F4005C08F5000313B20A0319EB
:10147000B30A132A642AB301B201B308031D642A14
:101480006F0832020318642A0310720D0317D90083
:10149000730DDA00740DDB00750DDC00C230031330
:1014A0003207840083133318831700080317590485
:1014B000F2005A08F3005B08F4005C08F50003131F
:1014C000B20A0319B30A3D2A433058078400831334
:1014D000720880000130D400D001D80A5808043CBA
:1014E000031DB12A8E3003178D0001308F000310C9
:1014F0000930D8008A110313C5218A154308031740
:10150000D8001B30D9008A11031359228A154408C8
:101510000317D8001B30D9008A11031359228A15EA
:1015200045080317D8001B30D9008A11031359222C
:101530008A1546080317D8001B30D9008A110313F7
:1015400059228A150D300C1EA32A990043308400BD
:101550008313F7010430F8008A11BC218A15D801E1
:10156000D401C52A0B138B138B1BB32AB701831627
:10157000881183128811433084008313F7010430EB
:10158000F8008A11BC218A15D801F501F401F30194
:10159000F201EC01ED01B301B2013208EF00EE00FF
:1015A000C23084008313F7012230F8008A11BC2175
:1015B0008A15C0308B047C0B8C2C83166408013C8C
:1015C000031CE42A83128C2C83120B138B138B1BAA
:1015D000E62AFE018316E801E701E601E5017D0840
:1015E0001A3C0319F72A7D08223C031D7F2B831226
:1015F000B3010130B20001307D02B308031D3D2B61
:10160000320203183D2B03108316650D8312031756
:10161000D90083160313660D83120317DA008316AD
:101620000313670D83120317DB0083160313680D82
:1016300083120317DC001030031332078400831772
:1016400000080317590483160313E50083120317D8
:101650005A0883160313E600831203175B088316E8
:101660000313E700831203175C0883160313E800D3
:101670008312B20A0319B30AFB2A983003178D00AC
:1016800001308F0003100930D8008A110313C521DF
:101690008A158316680883120317D8003730D900DB
:1016A0008A1103131B228A158316670883120317F6
:1016B000D8003730D9008A1103131B228A158316EC
:1016C000660883120317D8003730D9008A11031334
:1016D0001B228A158316650883120317D80037303A
:1016E000D9008A1103131B228A150D300C1E762B8C
:1016F00099000130B900BA01D501742C83167D0818
:10170000083C0319872B7D08043C031D6A2C8312B7
:10171000B90183160810831208107D08083C031DC8
:10172000D62BB3010430B200B308031DD52B7D08BE
:1017300032020318D52B03108316650D831203178D
:10174000D90083160313660D83120317DA0083167C
:101750000313670D83120317DB0083160313680D51
:1017600083120317DC001030031332078400831741
:1017700000080317590483160313E50083120317A7
:101780005A0883160313E600831203175B088316B7
:101790000313E700831203175C0883160313E800A2
:1017A0008312B20A0319B30A942B192CB301B201A4
:1017B000B308031D192C7D0832020318192C0310DD
:1017C0008316650D83120317D90083160313660D64
:1017D00083120317DA0083160313670D83120317AE
:1017E000DB0083160313680D83120317DC0010302F
:1017F0000313320784008317000803175904831664
:101800000313E500831203175A0883160313E60037
:10181000831203175B0883160313E7008312031771
:101820005C0883160313E8008312B20A0319B30A93
:10183000D82B47305907840083138316650880002E
:1018400001308312D500D101D90A5908043C031D87
:10185000682CA03003178D0001308F000310093071
:10186000D8008A110313C5218A1547080317D80029
:101870001B30D9008A11031359228A15480803170F
:10188000D8001B30D9008A11031359228A15490840
:101890000317D8001B30D9008A11031359228A1567
:1018A0004A080317D8001B30D9008A1103135922A4
:1018B0008A150D300C1E5A2C990047308400831372
:1018C000F7010430F8008A11BC218A15D901D5012D
:1018D000742C831683120B138B138B1B6C2CB90186
:1018E00083160810831208108316E801E701E60149
:1018F000E501F601FB018312B301B2013208FD00DC
:10190000FC00103084008317F7012230F8008A11A0
:10191000BC218A15C0308B0483166B0BF22D6E0828
:10192000013C0318F22D83120B138B138B1B952C88
:101930008316ED0183120317B501B401B301B2019F
:10194000831603136C081A3C0319AA2C6C08223C5A
:10195000031D102D8312B3010130B2000130831634
:101960006C028312B308031DD62C32020318D62C46
:1019700003100317320DD900330DDA00340DDB00EC
:10198000350DDC003630031332078400831700085E
:1019900003175904B2005A08B3005B08B4005C088E
:1019A000B5000313B20A0319B30AAE2CAA30031709
:1019B0008D0001308F0003100930D8008A11031305
:1019C000C5218A1503173508D8003730D9008A1188
:1019D00003131B228A1503173408D8003730D900A7
:1019E0008A1103131B228A1503173308D8003730D6
:1019F000D9008A1103131B228A1503173208D80055
:101A00003730D9008A1103131B228A150D300C1EA2
:101A1000072D99000130BB00BC01D601D52D8316DE
:101A20006C08083C0319182D6C08043C031DCB2DD1
:101A30008312BB01831688108312881083166C08EA
:101A4000083C031D502D8312B3010430B200B308CB
:101A5000031D4E2D83166C088312320203184E2D7F
:101A600003100317320DD900330DDA00340DDB00FB
:101A7000350DDC003630031332078400831700086D
:101A800003175904B2005A08B3005B08B4005C089D
:101A9000B5000313B20A0319B30A272D7A2D831652
:101AA0008312B301B201B308031D7A2D83166C08AB
:101AB0008312320203187A2D03100317320DD90056
:101AC000330DDA00340DDB00350DDC003630031346
:101AD000320784008317000803175904B2005A081C
:101AE000B3005B08B4005C08B5000313B20A031925
:101AF000B30A532D4B305A0784008313031732085F
:101B0000800001300313D600D201DA0A5A08043CDF
:101B1000031DC92DB23003178D0001308F00031053
:101B20000930D8008A110313C5218A154B08031701
:101B3000D8001B30D9008A11031359228A154C088A
:101B40000317D8001B30D9008A11031359228A15B4
:101B50004D080317D8001B30D9008A1103135922EE
:101B60008A154E080317D8001B30D9008A110313B9
:101B700059228A150D300C1EBB2D99004B30840064
:101B80008313F7010430F8008A11BC218A15DA01A9
:101B9000D401D52D831683120B138B138B1BCD2DE4
:101BA000BB0183168810831288100317B501B40196
:101BB000B301B20183160313E901EA018312B301F1
:101BC000B20132088316EC00EB0036308400831734
:101BD000F7012230F8008A118312BC218A15C03027
:0C1BE0008B04831683128A110A121A2C3F
:04400E00A23FFF3F8F
:00000001FF
;PIC16F727
;CRC=D132  CREATED="11-ene.-22 12:18"
